:020000040800F2
:10000000302B0020210200083D1B000815130008BA
:1000100019180008E30300089721000800000000F9
:10002000000000000000000000000000890100083E
:10003000E503000800000000CD010008051D0008D0
:100040003B0200083B0200083B0200083B0200089C
:100050003B0200083B0200083B0200083B0200088C
:100060003B0200083B0200083B0200083B0200087C
:100070003B0200083B0200083B0200083B0200086C
:100080003B0200083B0200083B0200083B0200085C
:100090003B0200083B0200083B0200083B0200084C
:1000A0003B020008911D00083B0200083B020008CB
:1000B0003B0200083B0200083B0200083B0200082C
:1000C0003B0200083B0200083B0200083B0200081C
:1000D0003B0200083B0200083B0200083B0200080C
:1000E0003B0200083B0200083B02000800F002F857
:1000F00000F03AF80AA090E8000C82448344AAF188
:100100000107DA4501D100F02FF8AFF2090EBAE885
:100110000F0013F0010F18BFFB1A43F0010318473B
:100120007034000090340000103A24BF78C878C1C1
:10013000FAD8520724BF30C830C144BF04680C60ED
:10014000704700000023002400250026103A28BF35
:1001500078C1FBD8520728BF30C148BF0B60704739
:100160001FB51FBD10B510BD00F002F91146FFF715
:10017000F7FF02F033F800F020F903B4FFF7F2FFC5
:1001800003BC00F027F90000224B19680868B0E8AA
:10019000F00F80F30988BFF36F8F4FF0000080F3FA
:1001A00011884EF00D0E70470000000006480068F0
:1001B000006880F3088862B661B6BFF34F8FBFF363
:1001C0006F8F00DF00BF00BF08ED00E0EFF3098094
:1001D000BFF36F8F0F4B1A6820E9F00F106008B55E
:1001E0004FF0500080F31188BFF34F8FBFF36F8F34
:1001F00002F080FC4FF0000080F31188BDE8084059
:1002000019680868B0E8F00F80F30988BFF36F8FB2
:10021000704700BF3C000020EFF3058070470000EE
:100220000948804709480047FEE7FEE7FEE7FEE78A
:10023000FEE7FEE7FEE7FEE7FEE7FEE704480549C6
:10024000054A064B704700008F1D0008ED000008AE
:1002500030250020302B00203027002030270020C0
:1002600040EA010310B59B070FD1042A0DD310C833
:1002700008C9121F9C42F8D020BA19BA884201D985
:10028000012010BD4FF0FF3010BD1AB1D30703D0CD
:10029000521C07E0002010BD10F8013B11F8014B83
:1002A0001B1B07D110F8013B11F8014B1B1B01D19F
:1002B000921EF1D1184610BD10B5203AC0F00B8047
:1002C000B1E81850203AA0E81850B1E81850A0E85A
:1002D0001850BFF4F5AF5FEA027C24BFB1E81850B4
:1002E000A0E8185044BF18C918C0BDE810405FEA24
:1002F000827C24BF51F8043B40F8043B08BF7047A0
:10030000D20728BF31F8023B48BF11F8012B28BFA4
:1003100020F8023B48BF00F8012B70474FF0000265
:1003200000B5134694469646203922BFA0E80C50EB
:10033000A0E80C50B1F12001BFF4F7AF090728BFC6
:10034000A0E80C5048BF0CC05DF804EB890028BF42
:1003500040F8042B08BF704748BF20F8022B11F06B
:10036000804F18BF00F8012B7047704770477047E7
:10037000754600F02BF8AE4605006946534620F05E
:100380000700854618B020B5FFF758FFBDE82040AC
:100390004FF000064FF000074FF000084FF0000B41
:1003A00021F00701AC46ACE8C009ACE8C009ACE8F4
:1003B000C009ACE8C0098D46704710B50446AFF3DC
:1003C00000802046BDE81040FFF7D7BE00487047C8
:1003D000CC24002001491820ABBEFEE72600020015
:1003E0007047FEE7704772B6FEE700002DE9F84F50
:1003F000DFF8B8910024A9F1040B23460F2709F177
:10040000040AABF1040EC9E00125A5402A40AA4226
:100410007DD1674ED1F804C0ACEB0608B44532D0AC
:1004200014DCBCF1030F3AD009DCBCF1000F2AD078
:10043000BCF1010F1CD0BCF1020F31D11DE0BCF1A9
:10044000110F17D0BCF1120F2AD119E0B8F5881F8F
:1004500019D006DCB8F5803F15D0B8F5801F1FD144
:1004600011E0B8F5001F0ED0B8F5041F18D10AE04E
:10047000CB6815E0CB681B1D12E0CB6808330FE09A
:10048000CB680C330CE08B682BB1012B4FF00803C9
:1004900003D0456104E0042302E0056100E000238D
:1004A000FF2A01D8064601E000F104064FEA840560
:1004B00001D9A5F12005D6F8008007FA05FC28EA45
:1004C0000C0803FA05F548EA0508C6F800804D68EF
:1004D000ED0062D5374DAE6946F00106AE61AD69FB
:1004E00024F0030605F001050095334D06EB050CDD
:1004F000DCF80850A607360F07FA06F825EA0805C3
:10050000DFF8B880404503D14FF0000817E044E021
:10051000DFF8AC80404502D14FF001080FE0DFF872
:10052000A480404502D14FF0020808E0DFF898802F
:10053000404502D14FF0030801E04FF0040808FAEB
:1005400006F848EA0508CCF808804D68D9F800603C
:10055000ED024D4601D5164300E096432E604D68EE
:10056000DAF80060AD02554601D5164300E0964327
:100570002E604D68DBF80060AD035D4601D5164383
:1005800000E096432E604D68DEF80060ED0375468E
:1005900001D5164300E096432E60641C0D682A4680
:1005A000E5407FF431AFBDE8F88F0000080401405A
:1005B000000011100010024000000140000801403E
:1005C000000C014000100140001401408068084008
:1005D00000D001207047000001488068704700008B
:1005E0001000002070B5040025D094F83D000025CF
:1005F00020B984F83C50204600F050F9242084F8BB
:100600003D002068016821F0010101602068016857
:1006100041F4004101602068016821F4004101605B
:1006200000F0E4FA4D4A6168914201D84C4900E07B
:100630004C49884201D2012070BD4B492368B0FB70
:10064000F1F15E6826F03F060E435E6063689342F8
:1006500006D94FF4967359434FF47A73B1FBF3F113
:100660002368491C1E6A26F03F06314319626168FF
:10067000914210D84900401EB0FBF1F2521CC2F367
:100680000B02042A01D2042022E0B0FBF1F0401C4E
:10069000C0F30B001CE0A268F2B301EBC10303EB53
:1006A0000116431EB3FBF6F35B1C43F480431B05AA
:1006B00049D092B301EBC10202EB0111401EB0FB25
:1006C000F1F0401CC0F30B0040F4804040F40040C7
:1006D0002168CA694CF6FF739A431043C861D4E994
:1006E000071001432068026822F0C0021143016034
:1006F000D4E9030101432068826848F2FF339A433A
:1007000011438160D4E9050108432168CA6822F0D9
:10071000FF021043C86001E00EE016E020680168A7
:1007200041F0010101602564202084F83D0025632B
:1007300084F83E50002070BD01EB4106431EB3FB20
:10074000F6F35B1CB3E70120C2E701EB4101401E59
:10075000B0FBF1F0401CC0F30B00B7E7A08601002E
:1007600080841E0000093D0040420F002DE9FF4F2C
:1007700083B09A46DDE9119793460446DDF8408040
:10078000FFF72AFF054694F83D0020287FD1192362
:10079000012240492046009500F054FE002876D101
:1007A00094F83C00012872D0012084F83C002068B5
:1007B0000168C90703D1016841F0010101602068A7
:1007C000016821F400610160212084F83D0040208F
:1007D00084F83E0000262664C4F82480A4F82A90F9
:1007E000608D20852C48E062CDE9007553465A465D
:1007F0002046049900F0A6FD70B930E02A4639463B
:10080000204600F0C5FE58B1206C042804D12068B1
:10081000016841F400710160012007B0BDE8F08F6C
:10082000606A216800780861606A401C6062218DFE
:10083000491E89B22185628D521E628522685369E4
:10084000DB435B070BD469B100781061606A401C20
:100850006062208D401E2085608D401E6085208D49
:100860000028CBD12A463946204600F0BFFD00289B
:10087000CAD154F83D0B016841F400710160202099
:1008800004F81E09E67766770020C6E7FFE7022036
:10089000C3E70000020010000000FFFF10B586B0A3
:1008A0000021009101910291039100680F49884253
:1008B0001AD10F4CA06940F00800A061A0696946F8
:1008C00000F008000490C020009012200190032046
:1008D00003900848FFF78AFDE06940F40010E061EA
:1008E000E06900F40010049006B010BD0054004010
:1008F00000100240000C0140024881680278114457
:100900008160704710000020074810B5016841F071
:1009100010010160032000F0A1F80F2000F006F89C
:1009200000F04AF8002010BD0020024030B5054616
:100930001C4887B0816941F400618161806906A922
:1009400000F40060009001A800F030F900F05EF9BA
:100950001549164AB0FBF1F11548491E0260416085
:1009600040F2E7320021C0E903218160816100F09B
:1009700015FB040012D10E4800F03EFB04000DD11F
:10098000192000F03DF8102D07D200222946192029
:1009900000F044F80748056000E0012407B0204655
:1009A00030BD00000010024040420F00002C01400A
:1009B00094030020140000200F4808B5816941F01D
:1009C00001018161816901F001010091C16941F07A
:1009D0008051C161C069002200F0805000900F2159
:1009E000901E00F01BF80548416821F0E06141F0DD
:1009F0000071416008BD000000100240000001408D
:100A0000002809DB00F01F0201219140400980000D
:100A100000F1E020C0F8001170470000F0B40E4B68
:100A20001B680C46C3F30223C3F10705042D00D94C
:100A30000425191D072901D2002300E0DB1E012631
:100A400006FA05F1491E214099409E40761E164047
:100A50003143F0BC01F0A0BB0CED00E0064900F012
:100A6000070208684FF6FF03184040EA0220034AD5
:100A700010430860704700000CED00E00000FA052C
:100A80002DE9F0470F46050061D0434E306800F075
:100A90000700B84209D2306820F0070038433060C0
:100AA000306800F00700B84251D128683B4C8107FC
:100AB00012D5400703D5606840F4E0606060287894
:100AC000000703D5606840F4605060606068A96802
:100AD00020F0F000084360602878C00728D06868DC
:100AE000012810D02168022810D0890700292EDAA9
:100AF000616821F0030101436160FFF76DFD8046ED
:100B000041F288390DE021688903EFE78901EDE7BB
:100B1000FFF762FDA0EB0801494502D90320BDE8BB
:100B2000F0876068696800F00C00B0EB810FEFD1CE
:100B3000306800F00700B8420BD9306820F0070099
:100B400038433060306800F00700B84201D001201F
:100B5000E5E72878400705D56068E96820F4E0609B
:100B6000084360602878000706D56068296920F48A
:100B7000605040EAC100606000F058F86168084ABF
:100B8000C1F30311515CC84006490860064800687B
:100B9000FFF7CCFE0020C2E7002002400010024018
:100BA000C62E00081C000020140000200F22026046
:100BB0000C4A536803F003034360536803F0F003E7
:100BC0008360536803F4E063C36052684FF4E063EA
:100BD00003EAD20202610448006800F007000860DE
:100BE0007047000000100240002002400448054900
:100BF00000684968044AC1F30221515CC84070474B
:100C00001C00002000100240D62E000804480549B0
:100C100000684968044AC1F3C221515CC84070476A
:100C20001C00002000100240D62E00080E4A516819
:100C30000E4801F00C03042B11D0082B0FD10C48E7
:100C4000C1F38343C903C05C0AD55168084AC1F3A4
:100C50004041921E515C054A5043B0FBF1F0704791
:100C600004494843704700000010024000127A0017
:100C7000B62E000800093D002DE9F84F040070D0A1
:100C80002078C04DC00749D06868C0F381000128B2
:100C900007D06868C0F38100022809D16868C003E2
:100CA00006D52868800339D560680028E7D035E08C
:100CB0006068B0F5803F0BD010B1B0F5A02F11D017
:100CC000286820F480302860286820F4802002E022
:100CD000286840F480302860606890B1FFF77CFCA1
:100CE00006460AE0286840F480202860F0E700BF4C
:100CF000FFF772FC801B642873D828688003F7D53F
:100D00000CE0FFF769FC064605E000BFFFF764FC56
:100D1000801B6428F0D828688003F7D420789A4E86
:100D200080074FF001094FF0000839D5686810F0CE
:100D30000C0F07D06868C0F38100022809D16868E9
:100D4000C00306D42868800714D52069012808D17B
:100D500010E02069B0B1C6F80090FFF73DFC0746EF
:100D600005E00AE1FFF738FCC01B0228C4D8286858
:100D70008007F7D52868616920F0F80040EAC100D3
:100D800028600DE0C6F80080FFF726FC074604E067
:100D9000FFF722FCC01B022823D828688007F7D45D
:100DA000207800072CD57948A169D9B1C0F8009006
:100DB000FFF712FC074604E0FFF70EFCC01B0228F9
:100DC0000FD8686A8007F7D571484FF4FA51006868
:100DD000B0FBF1F0009000BF0098411E0091FAD2E4
:100DE0000EE080E0C0F80080FFF7F6FB074604E065
:100DF000FFF7F2FBC01B022875D8686A8007F7D49A
:100E00002078400760D5E8690027C00008D4E86969
:100E100040F08050E861E869012700F080500090C0
:100E20005C480168C90513D40168834641F48071A8
:100E30000160FFF7D1FB824606E000BFFFF7CCFB65
:100E4000A0EB0A0064284ED8DBF80000C005F5D5F9
:100E5000E06801280AD008B1052813D0286A20F0DC
:100E600001002862286A20F0040002E0286A40F0AD
:100E700001002862E06841F2883B98B1FFF7ACFBC3
:100E800082460BE0286A40F004002862EEE700BFCB
:100E9000FFF7A2FBA0EB0A0159455AD8286A800740
:100EA000F6D50CE0FFF798FB824605E0FFF794FBD0
:100EB000A0EB0A0159454CD8286A8007F6D41FB127
:100EC000E86920F08050E861E06988B36968C1F39F
:100ED0008101022944D00228C6F8608004D0FFF7BF
:100EE0007BFB044638E034E0FFF776FB074604E07E
:100EF000FFF772FBC01B02282BD828688001F7D4AB
:100F0000206AB0F5803F05D16868A16820F4003000
:100F100008436860D4E908010843696821F4741142
:100F200008436860C6F86090FFF756FB044606E089
:100F300025E000BFFFF750FB001B022809D82868F6
:100F40008001F7D51BE000BFFFF746FB001B02281E
:100F500002D90320BDE8F88F28688001F4D40EE0A0
:100F60000128F7D06868226A00F48031914204D1E8
:100F7000616A00F47010884201D00120EAE7002085
:100F8000E8E70000001002400000424280044242B4
:100F90001C000020007000407047704710B504002E
:100FA00003D094F83D0010B107E0012010BD0020EF
:100FB00084F83C00204600F01EF8022084F83D0032
:100FC000211D206800F0EAFE012084F8460084F824
:100FD0003E0084F83F0084F8400084F8410084F823
:100FE000420084F8430084F8440084F8450084F803
:100FF0003D00002010BD704790F83D10012901D040
:1010000001207047022180F83D100168CA6842F053
:101010000102CA6000680B49884208D0B0F1804FD5
:1010200005D00949884202D00849884204D1816824
:1010300001F00701062903D0016841F001010160B8
:1010400000207047002C01400004004000080040D0
:1010500070472DE9F04104460068C66805694FF005
:101060000007A90713D5B10711D5F91E01610120A9
:101070002077206880698007204602D0FFF7E8FFCC
:1010800004E000F07EF8204600F07CF8277768073F
:1010900016D5700714D521686FF00400086102208E
:1010A00020772068806910F4407F204602D0FFF747
:1010B000CFFF04E000F065F8204600F063F82777E2
:1010C000280715D5300713D521686FF0080008618F
:1010D000042020772068C0698007204602D0FFF7EF
:1010E000B7FF04E000F04DF8204600F04BF82777FA
:1010F000E80616D5F00614D521686FF010000861D7
:10110000082020772068C06910F4407F204602D074
:10111000FFF79EFF04E000F034F8204600F032F8BC
:101120002777E80708D0F00706D021686FF00100A4
:101130000861204600F028F8280608D5300606D5B4
:1011400021686FF0800008612046FFF725FF6806E0
:1011500008D5700606D521686FF04000086120466A
:1011600000F01CF8A8060AD5B00608D521686FF073
:10117000200008612046BDE8F041FFF70EBFBDE842
:10118000F08170477047000000680349884201D130
:10119000FFF7B2BB70470000002C0140704770B5EC
:1011A000040004D094F84100002510B106E00120AD
:1011B00070BD84F84050204600F024F8242084F8C4
:1011C00041002068C16821F40051C160204600F050
:1011D0004DFF2068016921F4904101612068416957
:1011E00021F02A0141612068C16841F40051C160C9
:1011F0006564202084F8410084F842006563002083
:1012000070BD000030B585B00024009401940294B4
:10121000039400681449884224D11448816941F438
:1012200080418161816901F480410491816941F0CB
:101230000401816180690E4D00F0040004904FF4B8
:101240000070009002200190032003906946284618
:10125000FFF7CCF82815CDE900046946284602942A
:10126000FFF7C4F805B030BD00380140001002405F
:10127000000801402DE9F843044690F841009846E3
:1012800016460D46202802D00220BDE8F88385B11D
:101290007EB100206064212084F84100FFF79CF9B2
:1012A000A6848146E684A0682027B0F5805F02D03E
:1012B00003E00120E9E7206910B12E4600250EE089
:1012C00000260CE08021204600F02CFFA8B9C6B112
:1012D00016F8010B21684860E08C401EE084E08C29
:1012E0004B464FF00002CDF800800028EAD14FF0C5
:1012F0004001204600F016FF40B184F84170032001
:10130000C3E735F8020BC0F30800E3E784F8417047
:101310000020BAE7FEE701684A69D24352050FD4BC
:101320006FF480624A61002140F8301F202242732E
:101330008173026942F00402026101730120704767
:10134000002070472DE9F843044600680D46DDE9AA
:10135000089701689846164641F4807101604B4633
:1013600000224FF001112046009700F06BF848B1C1
:1013700020680068C00502D54FF400702064032087
:10138000BDE8F883216805F0FE0008613B464A4647
:101390001549204600F09EF888B9206841698069A7
:1013A00000903A464946204600F0F2F848B1206CD9
:1013B000042804D12068016841F400710160012013
:1013C000DEE7F5B2B8F1010F09D02168300A0861F3
:1013D0003A464946204600F0DBF80028E7D120686D
:1013E00005610020CCE700000200010070B5164640
:1013F0000D4604461EE02046FFF78DFF08B1012090
:1014000070BD681C16D0FFF7E7F8801BA84200D813
:1014100085B920684069C04340070BD5002044F8D7
:10142000300F20216173A073216941F020012161F7
:101430002073E4E720684069C0434007DBD4002004
:1014400070BD00002DE9F047984617460D4604464A
:10145000C1F30746DDF820902AE000BFB8F1FF3F56
:1014600026D0FFF7B9F8A0EB0901414502D8B8F141
:10147000000F1DD12068012E16D0806925EA0000DA
:101480000004000C12D00020B84211D1002044F812
:10149000300F20216173A073216941F02001216187
:1014A00020730120BDE8F0874069E7E70120EBE702
:1014B0002068012E0AD0806925EA00000004000C93
:1014C00006D00020B842C9D00020EBE74069F3E71E
:1014D0000120F7E72DE9F047984616460D460446E9
:1014E0004FF000094FF0200AC1F3074723E02068BE
:1014F0004069C043400515D42068016841F400717B
:10150000016021686FF480604861C4F8309084F80D
:101510003DA084F83E90216C41F00401216484F8E0
:101520003C9021E0701C06D0FFF756F8A0EB0800B5
:10153000B04203D816B1012F1FD021E02068012F3F
:1015400015D0806925EA00000004000C18D000BF07
:1015500044F8309F84F80DA084F80E90216941F082
:101560002001216184F80C900120BDE8F0874069DA
:1015700025EA00000004000CEAD12068406901E07F
:101580002068806925EA00000004000CAFD1ECE778
:1015900070B516460D4604461EE02046FFF7BBFE1A
:1015A00008B1012070BD681C16D0FFF715F8801B2C
:1015B000A84200D885B920684069C04300060BD511
:1015C000002044F8300F20216173A073216941F09D
:1015D000200121612073E4E720684069C0430006D0
:1015E000DBD4002070BD00002DE9F05FDFF8E8B02B
:1015F00000270446077001215D465846FEF7E6FFC6
:10160000064604212846FEF7E1FF824610212846BF
:10161000FEF7DCFFDFF8C48005464FF0010998F8BB
:10162000000001280AD14EB9142000F0F4FD012178
:101630005846FEF7CBFF08B984F8009088F80060A0
:1016400098F8010001280CD1BAF1000F09D114203B
:1016500000F0E1FD04215846FEF7B8FF08B902206A
:10166000207088F801A098F8020003264FF4967ABB
:10167000012801D0E0B12AE04DBB142000F0CBFDE1
:1016800010215846FEF7A2FF08BB01F00DFB98F8A9
:10169000031041B1D8F80810411A514502D2042074
:1016A000207012E0267088F80390C8F808000EE059
:1016B000012D0CD198F8030048B101F0F5FAD8F8E3
:1016C0000810401A504502D3267088F8037088F835
:1016D0000250BDE8F09F00000008014020000020FB
:1016E00010B59CB01C2216496846FEF7E5FD0021A6
:1016F000684600F09CFD134C11491C2220601C31EF
:1017000007A8FEF7D9FD002107A800F090FD0C49BD
:1017100060601C2238310EA8FEF7CEFD00210EA815
:1017200000F085FD0649A0601C22543115A8FEF783
:10173000C3FD002115A800F07AFDE0601CB010BDCB
:10174000442E00080000002000B585B00020019064
:1017500003901148816941F020018161816901F0A4
:1017600020010491816941F004018161816901F0E6
:1017700004010491816941F0080181618069694631
:1017800000F008000490152000900120029003480A
:10179000FEF72CFE05B000BD00100240000801401D
:1017A0000D4810B50B4901600C49416000214FF410
:1017B00080428160C0E9031241618161C1610162BF
:1017C000FEF710FF002803D0BDE81040FEF70BBE67
:1017D00010BD000000540040F8020020A086010067
:1017E0000C4810B50A4901604FF4E1314160002115
:1017F00081600C22C160C0E904128161C161FFF700
:10180000CEFC002803D0BDE81040FEF7ECBD10BDB3
:10181000003801404C030020FEE700002DE9F04FA6
:101820007F4889B00179002966D04FF000098046D1
:1018300080F804900078DFF8ECB12025EA4640B14A
:10184000774A002001465278474654465BF82220EA
:101850005AE0012174A2084600F018FA0026B01CD4
:10186000C7B2042F48D86E480C3800793044C2B251
:10187000072A41D298F80100904201D13E2000E0B1
:1018800020208DF80000012400205BF822C0534680
:1018900004E0401C1955641CC0B2E4B21CF80010EE
:1018A00031B10528F5D303E00AF80450641CE4B212
:1018B000082CF9D305A9104600F02CFD002005AB3B
:1018C000524604E0401C1155641CC0B2E4B2195CDD
:1018D00029B1102CF6D304E01555641CE4B2102C89
:1018E000FAD38DF810906A460121384600F0CEF9FF
:1018F000761CF6B2032EB2D309B0BDE8F08F491CB6
:101900002354401CC9B2C0B2535C2BB11028F6D38B
:1019100004E02554401CC0B21028FAD301214E46E1
:101920008DF810902246084600F0B0F900202554AA
:10193000401CC0B21028FAD356208DF80000612058
:101940008DF801006C208DF8020075208DF80300E1
:1019500065208DF804003A208DF805008DF80650BA
:10196000787805A900F0D6FC002005A903E023182B
:10197000401CDA71C0B20A5C12B1C31D102BF6D341
:101980008DF810606A460121022000F07FF9797815
:1019900029A0072912D2DFE801F00406080A0C0E7C
:1019A000100026A00AE029A008E02CA006E02FA045
:1019B00004E032A002E035A000E038A00021655428
:1019C000491CC9B21029FAD3002102E06254491C13
:1019D000C9B2425C0AB11029F8D38DF810606A468A
:1019E0000121032000F052F9B87808B12DA100E0E0
:1019F00030A100202554401CC0B21028FAD300208A
:101A000002E02254401CC0B20A5C0AB11028F8D38C
:101A10008DF810606A460121042000F037F96BE769
:101A20002C000020D83400083D3D506172616D20CB
:101A30004D656E753D3D00000000000052616E670F
:101A4000653A33302D34304D487A000052616E676C
:101A5000653A3130302D314B6D56000052616E6762
:101A6000653A33302D3930250000000052616E6731
:101A7000653A35302D3230306E73000052616E673A
:101A8000653A302D313830646567000052616E6709
:101A9000653A302D323064420000000043572F4138
:101AA0004D0000004F4B3A63666D20443A6261631B
:101AB0006B00000055443A61646A204F4B3A6366FC
:101AC0006D00000070B51C4C03460125227860783B
:101AD000A4F10C01012B08D0022B13D00020032B02
:101AE00022D0042B24D1207024E012B1A570012152
:101AF0000CE008B1401E60700A79C0B2904216D264
:101B0000087114E02AB1A5704FF0FF3100F0BAFB64
:101B10000DE0062801D2401C60700A79C0B2D21CC8
:101B2000904204D3801EEBE71AB1A070207025719B
:101B300070BD2570A070FAE72C000020FEE770B59C
:101B400000240021204600F061F80025002000F06C
:101B5000C3F86D1CEDB2802DF8D3641CE4B2082CE0
:101B6000EFD370BD10B500204FF47A720021491CEC
:101B70009142FCD3401C9042F8D3AE2000F09AF87A
:101B8000D52000F097F8802000F094F8A82000F00D
:101B900091F83F2000F08EF8D32000F08BF8002061
:101BA00000F088F8402000F085F8A12000F082F8CD
:101BB000C82000F07FF8DA2000F07CF8122000F056
:101BC00079F8812000F076F8CF2000F073F8D92062
:101BD00000F070F8F12000F06DF8DB2000F06AF8FA
:101BE000302000F067F8A42000F064F8A62000F090
:101BF00061F88D2000F05EF8142000F05BF8AF2053
:101C000000F058F8BDE81040FFF799BF10B50C463A
:101C100040F0B00000F04EF8102040EA141000F040
:101C200049F804F00F00BDE8104000F043B8000090
:101C30002DE9F0410746CE004000203A083E801EC4
:101C4000D5B24FF0FF38F1B2C0B2FFF7DFFF0E4858
:101C5000002400EB0515285D00F03EF8641CE4B29A
:101C6000082CF8D308EB4700F1B2C0B2FFF7CEFF63
:101C700000242819007A00F02FF8641CE4B2082C24
:101C8000F7D3BDE8F0810000DE2E00082DE9F04119
:101C900015460E460746002406E03019C1B2384604
:101CA000FFF7C6FF641CE4B22A5D002AF5D1BDE847
:101CB000F081000001B584B00121642204A88DE800
:101CC00007000B46002278210248FEF74FFD05B0C1
:101CD00000BD0000F802002001B584B0012164229B
:101CE00004A88DE807000B46402278210248FEF741
:101CF0003DFD05B000BD0000F8020020012000F00D
:101D00008AFAFBE710B5502080F31188BFF34F8F9C
:101D1000BFF36F8F00F0CEFF18B104494FF0805031
:101D20000860002080F3118810BD000004ED00E081
:101D300030B58FB028216846FEF7F0FA14210AA8C2
:101D4000FEF7ECFA01210804CDE90010002402940A
:101D500002250491CDE907504FF4E0100990684640
:101D6000FEF78AFF08B172B6FEE70F20CDE90A053B
:101D70004FF48060CDE90C4002210AA80E94FEF7D2
:101D80007FFE002801D072B6FEE70FB030BD70476D
:101D90000148FFF75EB9000094030020F0B5026827
:101DA000194B1A4C1A4D4FF08047984205D0B84253
:101DB00003D0A04201D0A84203D122F070064A68A5
:101DC0003243984205D0B84203D0A04201D0A84285
:101DD00003D122F44074CA6822434C6922F0800285
:101DE000224302608A68C2620A688262984201D114
:101DF00009690163012141610169C90703D00169D2
:101E000021F001010161F0BD002C014000040040FF
:101E10000008004001680C3151E8002F22F4907254
:101E200041E80023002BF5D10168143151E8002F5F
:101E300022F0010241E80023002BF5D1016B0129BA
:101E400009D101680C3151E8002F22F0100241E85D
:101E50000023002BF5D1202180F8421000210163DE
:101E600070470000F0B599B024208DF800007C4B3D
:101E700046208DF801009C796421B4FBF1F03030EC
:101E80008DF80200B4FBF1F001FB10450A20B5FB10
:101E9000F0F530358DF80350B4FBF0F500FB154438
:101EA00030348DF8044041248DF805401C894FF4EE
:101EB0007A75B4FBF5F530358DF806504FF47A7528
:101EC000B4FBF5F605FB1645B5FBF1F530358DF89D
:101ED0000750B4FBF1F501FB1545B5FBF0F53035C6
:101EE0008DF80850B4FBF0F500FB154430348DF844
:101EF00009404D248DF80A409C7A6A46B4FBF0F5FF
:101F000030358DF80B50B4FBF0F500FB1544303440
:101F10008DF80C40DC7A534D35F8144044258DF88B
:101F20000D50B4FBF1F530358DF80E50B4FBF1F5E2
:101F300001FB1545B5FBF0F530358DF80F50B4FBBE
:101F4000F0F500FB154430348DF81040454D1C7BF6
:101F5000083D2C5D50258DF81150B4FBF1F530355E
:101F60008DF81250B4FBF1F501FB1541B1FBF0F116
:101F700030318DF81310B4FBF0F100FB114130311A
:101F80008DF81410374C597B0C34615C4C248DF85F
:101F90001540B1FBF0F430348DF81640B1FBF0F48D
:101FA00000FB141030308DF8170054208DF8180005
:101FB000987B20B141208DF819004D2003E043208B
:101FC0008DF8190057208DF81A001B211A230020C4
:101FD00010AC15186D782554401CC0B29842F8D347
:101FE000002026460446312710E0355D6840002574
:101FF0005FEA006C02D587EA400000E040006D1CFB
:10200000ADB2C0B2082DF3D3641CA4B29C42ECD391
:102010002A2353540923491CB3EB101F4FEA101312
:1020200001D2373300E0303300F00F00092801D926
:10203000373000E030305354491C4FF47A73505419
:10204000491C0D205054491CC8B20A211154401C8F
:10205000C2B269460448FFF70DF919B0F0BD00009F
:102060002C000020143500084C03002070B50446F5
:1020700000680169E26821F440511143016121695E
:10208000A0680843616908432168CA6841F20C638B
:102090009A430243CA6020684169A26921F44071F1
:1020A000114341611E492068884202D1FEF7AEFD0E
:1020B00001E0FEF79BFD00EBC00101EB0012606840
:1020C00064218000B2FBF0F3B3FBF1F36FF018066C
:1020D0007343B2FBF0F5B2FBF0F605EB8305322358
:1020E00003EB0515B5FBF1F5B6FBF1F605F0F005D0
:1020F00005EB0615B2FBF0F6B2FBF0F0B0FBF1F029
:102100006FF01802504306EB800003EB0010B0FBA9
:10211000F1F0216800F00F002844886070BD0000D5
:10212000003801402DE9F843984617460D4604460D
:10213000089E24E0701C22D0FEF74EFAA0EB0800A7
:10214000B0421AD8CEB12068C168490717D5802D92
:1021500015D0402D13D00168C94309070FD4016879
:102160000025406800902046FFF754FE0820606478
:1021700084F840500120BDE8F8830320FBE7206885
:10218000006835EA000004D00020B842D2D0002018
:10219000F1E70120F9E7FEE70907090E002804DB53
:1021A00000F1E02080F80014704700F00F0000F10B
:1021B000E02080F8141D7047074908B50020087119
:1021C0006846FFF711FA9DF8000008B1FFF77AFCA6
:1021D0000A2000F020F8F3E720000020FEF794FB2F
:1021E000FFF7A6FDFFF7B0FAFFF7DAFAFFF7F8FA04
:1021F000FFF776FA00F016F8FEE701460020842982
:1022000000D0C81C7047FFF7ADFCFFF707FB32207A
:1022100000F001F8F9E710B500B9012000F006FC64
:10222000002010BD10B500F027FC002010BD7FB5C8
:102230000D4604464169B0F9080081B1A16971B148
:10224000FFF7DBFFD4E905128DE80700D4E90010A1
:102250002B46226900F0FDFC039004B070BDFFF72F
:10226000CCFF03A9CDE90001208A2B4682B2D4E934
:10227000001000F0C1FC012801D00020EDE7039818
:10228000EBE70000224A07283ED2DFE800F0040C0A
:102290001B262C32380090790844A0F11E010A292F
:1022A00032D8907130E0108901EBC10303EB0111CA
:1022B00000EB810000B2A0F16401B1F5617F23D889
:1022C000108121E0907A01EB810100EB4100A0F147
:1022D0001E013C2918D8907216E0D07A08440528CF
:1022E00012D8D07210E0107B084406280CD8107366
:1022F0000AE0507B08440A2806D8507304E0907B1B
:102300000844012800D890730120D0707047000065
:102310002C00002070B50C4600251E49072837D236
:10232000DFE800F0040608181D212A0088791EE065
:1023300008891CE0887A214600F08CFA002001E030
:10234000401CC0B2215C0029FAD12521215420442F
:10235000457070BDC87A104931F8100007E0087B5D
:102360000D49243902E0487B0B490C31085C2146B9
:10237000BDE8704000F06EBA887B18B14120207033
:102380004D2002E04320207057206070A57070BD82
:10239000257070BD2C000020F43400082DE9F041B8
:1023A000184C0F460546E6682068001D00F076FAD6
:1023B00038B9206890F82C100120884021698143A9
:1023C0002161681C07D137B12168BDE8F0410E4892
:1023D000091D00F0A7BA20683544B5424560216860
:1023E00005D2A06BBDE8F041091D00F083BA606B17
:1023F000091D00F07FFAA06A854200D2A562BDE8FF
:10240000F08100003C000020B80400202DE9F041DC
:10241000054600F093FA2E4CA068401CA06020688E
:102420002C4F10B1606940B32DE02560A0680128F1
:1024300029D1002606EB860007EB800000F04CFA5D
:10244000761C072EF6D323488C3000F045FA21483D
:10245000A03000F041FA1F48B43000F03DFA1D48AA
:10246000C83000F039FA1B48DC3000F035FA194862
:102470008C3060631430A06305E02068E96AC06AAC
:10248000884200D82560606A401C6062E96A0120C9
:10249000226988401043206101EB810007EB800036
:1024A000291D00F03FFA00F069FA606900280CD09D
:1024B0002068E96AC06A884207D207494FF0805015
:1024C0000860BFF34F8FBFF36F8FBDE8F08100004E
:1024D0003C000020DC03002004ED00E010B50446C1
:1024E00090F8510058B101280CD002280FD050208C
:1024F00080F31188BFF34F8FBFF36F8FFEE7206B20
:1025000000F050FA2046BDE8104000F04BBA10BD74
:1025100010484FF40051420706D0C01D0D4920F06D
:102520000700411AC1F500510B4A00230144C2E9DA
:1025300000030839183A21F0070111604B600B6065
:102540000B1AC0E9001393604FF0004053605061D4
:1025500070470000CC04002090000020144E154C61
:10256000A6F1C8074FF08058DFF84C9012E000BF8A
:1025700000F0E4F9F068C568281D00F08FF9A06844
:10258000401EA0606068401E606000F0F7F92846B9
:10259000FFF7A4FF60680028EAD138680128F9D95C
:1025A000C9F80080BFF34F8FBFF36F8FF2E70000D1
:1025B000A40400203C00002004ED00E02DE9F047D9
:1025C0009A46DDE9098481466FF00303206B03EB33
:1025D00082021044089E20F00707780707D0502099
:1025E00080F31188BFF34F8FBFF36F8FFEE7002595
:1025F00061B1002023180A5C83F834200A5C12B110
:10260000401C1028F6D384F8435001E084F834507D
:10261000072E00D30626E662C4E91165201D00F0EE
:1026200066F904F1180000F062F92461C6F10700B0
:102630006462A061E56484F85050524649463846C9
:1026400000F0C0F82060B8F1000F01D0C8F80040D9
:10265000BDE8F08730B5114900E011460A688242B2
:10266000FBD34B685C18844203D14068184448602F
:10267000084643681C18944209D1084C183C246849
:10268000A24209D052681A4442600A681268026085
:10269000814200D0086030BD0460F9E7900000205E
:1026A0000648416B096829B1416BC968C968496826
:1026B000816270474FF0FF31FAE700003C000020D4
:1026C00008484068401C4FF0500080F3118804D047
:1026D000BFF34F8FBFF36F8FFEE7BFF34F8FBFF393
:1026E0006F8FFEE7980000202DE9F0410546002796
:1026F00000F0F8F9324E306808B9FFF709FF706949
:1027000005424ED1C5B3083568070ED005F0070065
:10271000C0F108000544680707D0502080F31188F5
:10272000BFF34F8FBFF36F8FFEE72DB37068854205
:1027300037D82348183001460C6801E020460C4683
:102740006168A94202D221680029F7D131688C4220
:1027500027D007682168016060680837411B10298D
:102760000FD96019420708D0502080F31188BFF3B9
:102770004F8FBFF36F8FFEE713E041606560FFF797
:1027800069FF61687068401A7060B268904200D258
:10279000B060706901430020C4E90001F068401C8A
:1027A000F06000F0EDFA780707D0502080F3118830
:1027B000BFF34F8FBFF36F8FFEE73846BDE8F08160
:1027C0007800002010B5031F4FF080741C601B1FA1
:1027D00021F001011960191F024B0B6014394038B8
:1027E0000A6010BDC12600081FB517A1184CD1E919
:1027F00000010025CDE90201E07808B3A0798DF849
:10280000000020890722010A8DF801108DF80200CE
:10281000A07A8DF80300E07A8DF80400207B8DF813
:102820000500607B8DF80600694602A8FDF718FDDB
:1028300028B1DDE90001CDE90201FFF713FBE570E6
:102840006420FFF7E8FCD7E7FFFFFFFFFFFFFF0073
:102850002C000020FEB500221346164680B10A2542
:102860004FEA0D04B0FBF5F705FB1707B0FBF5F0D9
:102870003037A754521CD2B260B10B2AF2D309E010
:10288000302008704E70FEBD521ED2B2A05CC854FB
:102890005B1CDBB2002AF7D1CE54FEBDD0E9013279
:1028A00001699A60D0E901235A604A68824201D1E5
:1028B00082684A60002202610868401E0860086859
:1028C00070470000034B036003F154000860802050
:1028D00010607047A400002000F108014FF0FF32A3
:1028E000C0E90112C160016100210160704700214F
:1028F0000161704730B50B685A1C02D000F1080224
:1029000002E0026904E02246546825689D42FAD933
:1029100053684B6099608A60516008610168491C86
:10292000016030BD42684A6093688B60936859606B
:10293000916008610168491C01607047502080F374
:102940001188BFF34F8FBFF36F8F0A494868401C4F
:10295000486001280CD10848006810F0FF0F07D02C
:10296000502080F31188BFF34F8FBFF36F8FFEE7C6
:10297000704700009800002004ED00E00849486816
:1029800028B1401E486001D180F311887047502063
:1029900080F31188BFF34F8FBFF36F8FFEE7000006
:1029A0009800002070B500282AD0164DA0F1080428
:1029B00060686969084207D1502080F31188BFF32D
:1029C0004F8FBFF36F8FFEE722683AB1502080F33C
:1029D0001188BFF34F8FBFF36F8FFEE788436060AE
:1029E00000F080F860686968084468602046FFF776
:1029F00031FE2869401C2861BDE8704000F0C0B974
:102A000070BD0000780000204FF0E020002101613F
:102A1000816105494FF47A720968B1FBF2F1491EF0
:102A200041610721016170471C00002010B50200C0
:102A300014D00F48006B38B1502080F31188BFF3D9
:102A40004F8FBFF36F8FFEE700F04CF80021104668
:102A5000FFF7A4FC00F094F9002807D105494FF0D6
:102A600080500860BFF34F8FBFF36F8F10BD000021
:102A70003C00002004ED00E010B586B00024039473
:102A800005AA04A903A80494FFF71CFFDDE90301CC
:102A90000094CDE9011000230EA11048059A00F022
:102AA000D8F80F490028C86211D0502080F311884F
:102AB000BFF34F8FBFF36F8F4FF0FF30886201205D
:102AC0004861CC6006B0BDE8104000F041B806B0E7
:102AD00010BD000049444C45000000005D25000881
:102AE0003C0000200248016B491C01637047000054
:102AF0003C0000201448016B11B10121C1617047F5
:102B00000021C1610169B1FA81F1C1F11F0101EB3D
:102B100081020E4951F822306BB101EB820101F1C3
:102B200008034A6852684A609A4201D152684A6072
:102B3000D16801607047502080F31188BFF34F8F38
:102B4000BFF36F8FFEE700003C000020DC03002095
:102B50001CB5264908780190FF20087008788DF888
:102B600000009DF800009DF8002000F0F000904269
:102B700007D0502080F31188BFF34F8FBFF36F8FC2
:102B8000FEE79DF800001A4C00F05000207007206E
:102B9000A06005E09DF8002052008DF80020401E46
:102BA0009DF800201206F5D4A060032807D050201D
:102BB00080F31188BFF34F8FBFF36F8FFEE74FF4A1
:102BC0004070A060019808700A48016841F47001E3
:102BD0000160016841F070410160FFF715FF0020BE
:102BE0006060FDF7E3FA00201CBD000000E400E097
:102BF0009800002020ED00E02DE9FF5F8346DDE92D
:102C00000E87994616468A469000FFF76DFD05002F
:102C10001CD05420FFF768FD040014D00020256369
:102C200084F85100CDE90240CDE900874B46324699
:102C300051465846FFF7C2FC2046FFF7E7FB01204C
:102C400004B0BDE8F09F2846FFF7ACFE4FF0FF3020
:102C5000F6E7F0B585B0DDE90B640A9DA6B1DCB1FD
:102C6000542700972663022684F85160002604AF9B
:102C7000CDE90246CDE90057FFF7A0FC2046FFF75B
:102C8000C5FB049805B0F0BD502080F31188BFF358
:102C90004F8FBFF36F8FFEE7502080F31188BFF393
:102CA0004F8FBFF36F8FFEE70148C0687047000089
:102CB0003C0000202DE9F0412F4C0026206B28B16C
:102CC000A069401CA0613046BDE8F081E5686D1C3C
:102CD000E56013D1606B006838B1502080F3118833
:102CE000BFF34F8FBFF36F8FFEE7606BA16B616324
:102CF000A063206A401C2062FFF7D2FCA06ADFF8C4
:102D00007C80854209D3606B0068A0B1606BC068AD
:102D1000C7687868854211D2A0622068C06A00EB5B
:102D2000800158F82100012800D90126E069002817
:102D3000C9D00126C7E74FF0FF30EDE7381DFFF798
:102D4000ADFDB86A18B107F11800FFF7A7FDF96AE1
:102D50000120226988401043206101EB810108EBCA
:102D60008100391DFFF7DEFDF86A2168C96A8842D3
:102D7000C9D30126C7E700003C000020DC03002087
:102D80002DE9F0472C4D00242746286B38B1FFF77A
:102D9000D5FD286B401E2863286B40B146E05020CB
:102DA00080F31188BFF34F8FBFF36F8FFEE7A968E1
:102DB000224E0120D1B3A6F1B40980463068E8B1B3
:102DC000F068C46804F11800FFF768FD201DFFF7E4
:102DD00065FDE06A2A6908FA00F11143296100EBF8
:102DE000800109EB8100211DFFF79CFDE06A296845
:102DF000C96A8842E2D3C5F81C80DFE70CB1FFF74F
:102E00004FFCAC6944B14646FFF754FF00B1EE6198
:102E1000641EF9D10020A861E86938B1084901278A
:102E200038070860BFF34F8FBFF36F8FFFF7A6FD22
:102E30003846BDE8F08700003C00002090040020E8
:102E400004ED00E02C350008FD1C00080000000027
:102E500000000000800000000000000000000000F2
:102E600038350008072200080000000000000000BC
:102E700000010000000000000000000050350008C4
:102E8000B9210008010000000000000080000000DF
:102E9000000000000000000044350008E927000899
:102EA000FFFF000000000000000100000000000023
:102EB00000000000010202030405060708090A0BCE
:102EC0000C0D0E0F101000000000000000000102A9
:102ED00003040607080900000000010203040000C3
:102EE00000000000000000000000000000000000E2
:102EF00000F8000000000000003330000000001067
:102F00000C06100C0600000000000000000040C08D
:102F10007840C0784000043F04043F04040000707F
:102F200088FC08300000001820FF211E0000F00877
:102F3000F000E018000000211C031E211E0000F01C
:102F40000888700000001E21232419272110101664
:102F50000E00000000000000000000000000000063
:102F600000E01804020000000007182040000002E2
:102F70000418E00000000040201807000000404056
:102F800080F0804040000202010F010202000000B8
:102F900000F0000000000101011F0101010000001C
:102FA00000000000000080B0700000000000000081
:102FB000000000000000000101010101010100000A
:102FC00000000000000000303000000000000000A1
:102FD000000080601804006018060100000000E096
:102FE00010080810E000000F102020100F00001043
:102FF00010F8000000000020203F2020000000709A
:103000000808088870000030282422213000003091
:103010000888884830000018202020110E00000089
:10302000C02010F8000000070424243F240000F80A
:103030000888880808000019212020110E0000E0EF
:10304000108888180000000F112020110E00003891
:103050000808C83808000000003F000000000070A9
:10306000880808887000001C222121221C0000E032
:1030700010080810E0000000312222110F000000AB
:1030800000C0C00000000000003030000000000060
:1030900000800000000000008060000000000000D0
:1030A0008040201008000001020408102000404069
:1030B00040404040400004040404040404000008AC
:1030C0001020408000000020100804020100007061
:1030D00048080808F0000000003036010000C03049
:1030E000C828E810E0000718272423140B0000006C
:1030F000C038E0000000203C23020227382008F8F6
:10310000888888700000203F202020110E00C030E9
:10311000080808083800071820202010080008F8C0
:1031200008080810E000203F202020100F0008F8B9
:103130008888E8081000203F20202320180008F885
:103140008888E8081000203F200003000000C030FD
:1031500008080838000007182020221E020008F87E
:1031600008000008F808203F210101213F20000845
:1031700008F8080800000020203F20200000000080
:103180000808F8080800C08080807F00000008F868
:1031900088C028180800203F20012638200008F8A1
:1031A000080000000000203F20202020300008F808
:1031B000F800F8F80800203F003F003F200008F822
:1031C00030C00008F808203F200007183F00E0103A
:1031D00008080810E0000F10202020100F0008F849
:1031E00008080808F000203F210101010000E0105C
:1031F00008080810E0000F18242438100F0008F801
:1032000088888808F000203F2000030C30200070E0
:103210008808080838000038202121221C001808DE
:1032200008F8080818000000203F2000000008F8F7
:1032300008000008F808001F202020201F00087840
:10324000880000C83808000007380E010000F808A0
:1032500000F80008F800033C0700073C03000818CA
:1032600068808068180820302C03032C3020083830
:10327000C800C83808000000203F200000001008E7
:103280000808C8380800203826212020180000002F
:1032900000FE020202000000007F40404000000CDF
:1032A00030C000000000000000010638C00000022D
:1032B0000202FE000000004040407F0000000000CD
:1032C00004020202040000000000000000000000F0
:1032D00000000000000080808080808080800002EC
:1032E00002040000000000000000000000000000D8
:1032F0008080808000000019242222223F2008F8CC
:10330000008080000000003F112020110E0000000E
:10331000008080800000000E112020110E000000AF
:1033200000808088F800000E112020103F2000004F
:10333000808080800000001F222222221C0000804A
:1033400080F0888888180020203F2020000000009E
:10335000808080808000006B94949493600008F8D3
:10336000008080800000203F210000203F2000805E
:103370009898000000000020203F2020000000005E
:1033800000809898000000C08080807F000008F8CE
:10339000000080808000203F24022D3020000008A3
:1033A00008F8000000000020203F2020000080805E
:1033B000808080808000203F20003F20003F808070
:1033C000008080800000203F210000203F2000007E
:1033D000808080800000000F102020100F0080806F
:1033E00000808000000080FFA12020110E0000005E
:1033F000008080808000000E112020A0FF8080804F
:1034000080008080800020203F21200001000000FB
:10341000808080808000001C2222222211000080F7
:1034200080F0808000000000203F2020000080808D
:10343000000080808000001F202020103F2080801E
:10344000800000808080000106380C03000080802E
:103450000080008080800F300C030C300F00008053
:103460008000808080000020312E2E31200080805E
:1034700080000080808080818678180601000080AE
:103480008080808080000021302C222130000000CC
:103490000000807C020200000000003F404000006D
:1034A0000000FF00000000000000FF00000000021C
:1034B000027C800000000040403F00000000000649
:1034C00001010202040400000000000000000000EE
:1034D000001E3C5A7896B40080350008703500080C
:1034E0005C35000888350008683500087835000824
:1034F00060350008320050006E008C00AA00C80041
:1035000000020406080A0C0E10121400001E3C5A99
:103510007896B400320050006E008C00AA00C800FB
:1035200000020406080A0C0E10121400646566619D
:10353000756C745461736B006F6C65645F74617358
:103540006B000000756172745F7461736B00000042
:103550006B65795F7461736B000000004D6F6400F0
:1035600054797065000000005068617365000000C8
:10357000416D706C000000004174746E000000002A
:10358000467265710000000044656C6179000000BE
:10359000B035000800000020A40000002801000849
:1035A00054360008A40000208C2A000044010008C2
:1035B000000000000000000000000000000000000B
:1035C00001000000100000000000000000127A005E
:1035D00001010100000000000000000000000000E8
:1035E00001002300F401320200000000000000008E
:1035F00000000000000000000000000000000000CB
:1036000000000000000000000000000000000000BA
:1036100000000000000000000000000000000000AA
:10362000000000000000000000000000000000009A
:10363000000000000000000000000000000000008A
:10364000000000000000000000000000AAAAAAAAD2
:043650000000000076
:04000005080000ED02
:00000001FF
