:020000040800F2
:10000000302B002021020008211B00080F160008D9
:100010001D1A00088B0300081520000800000000CE
:10002000000000000000000000000000890100083E
:100030008D03000800000000CD010008E91C000845
:100040003B0200083B0200083B0200083B0200089C
:100050003B0200083B0200083B0200083B0200088C
:100060003B0200083B0200083B0200083B0200087C
:100070003B0200083B0200083B0200083B0200086C
:100080003B0200083B0200083B0200083B0200085C
:100090003B0200083B0200083B0200083B0200084C
:1000A0003B020008751D00083B0200083B020008E7
:1000B0003B0200083B0200083B0200083B0200082C
:1000C0003B0200083B0200083B0200083B0200081C
:1000D0003B020008092000083B0200083B02000820
:1000E0003B0200083B0200083B02000800F002F857
:1000F00000F03AF80AA090E8000C82448344AAF188
:100100000107DA4501D100F02FF8AFF2090EBAE885
:100110000F0013F0010F18BFFB1A43F0010318473B
:10012000F432000014330000103A24BF78C878C1BC
:10013000FAD8520724BF30C830C144BF04680C60ED
:10014000704700000023002400250026103A28BF35
:1001500078C1FBD8520728BF30C148BF0B60704739
:100160001FB51FBD10B510BD00F0D6F81146FFF742
:10017000F7FF01F0A5FF00F0F4F803B4FFF7F2FF7A
:1001800003BC00F0FBF80000224B19680868B0E8D7
:10019000F00F80F30988BFF36F8F4FF0000080F3FA
:1001A00011884EF00D0E70470000000006480068F0
:1001B000006880F3088862B661B6BFF34F8FBFF363
:1001C0006F8F00DF00BF00BF08ED00E0EFF3098094
:1001D000BFF36F8F0F4B1A6820E9F00F106008B55E
:1001E0004FF0500080F31188BFF34F8FBFF36F8F34
:1001F00002F0CEFB4FF0000080F31188BDE808400C
:1002000019680868B0E8F00F80F30988BFF36F8FB2
:10021000704700BF34000020EFF3058070470000F6
:100220000948804709480047FEE7FEE7FEE7FEE78A
:10023000FEE7FEE7FEE7FEE7FEE7FEE704480549C6
:10024000054A064B70470000731D0008ED000008CA
:1002500030250020302B00203027002030270020C0
:1002600010B5203AC0F00B80B1E81850203AA0E851
:100270001850B1E81850A0E81850BFF4F5AF5FEA85
:10028000027C24BFB1E81850A0E8185044BF18C938
:1002900018C0BDE810405FEA827C24BF51F8043BDF
:1002A00040F8043B08BF7047D20728BF31F8023B33
:1002B00048BF11F8012B28BF20F8023B48BF00F8C7
:1002C000012B70474FF0000200B513469446964646
:1002D000203922BFA0E80C50A0E80C50B1F1200159
:1002E000BFF4F7AF090728BFA0E80C5048BF0CC007
:1002F0005DF804EB890028BF40F8042B08BF704765
:1003000048BF20F8022B11F0804F18BF00F8012BD6
:100310007047704770477047754600F02BF8AE463F
:1003200005006946534620F00700854618B020B501
:10033000FFF784FFBDE820404FF000064FF00007B4
:100340004FF000084FF0000B21F00701AC46ACE87D
:10035000C009ACE8C009ACE8C009ACE8C0098D46EA
:10036000704710B50446AFF300802046BDE810404A
:10037000FFF703BF00487047D02400200149182030
:10038000ABBEFEE7260002007047FEE7704772B67C
:10039000FEE710B590F821100022022905D00421B3
:1003A000816380F82020012010BD01680B6823F0D4
:1003B0000E030B6001680B6823F001030B6090F8DB
:1003C0004030C46B012101FA03F3636080F821100F
:1003D00080F82020104610BD10B590F821100024A0
:1003E000022903D00421816301243DE001680A68E9
:1003F00022F00E020A6001680A6822F001020A6017
:100400001A4A0168914201D1012121E0174A1432B0
:10041000914201D110211BE0144A2832914201D1AE
:10042000891515E0114A3C32914201D189140FE03F
:100430000E4A5032914202D14FF4803108E00B4A0B
:100440006432914202D14FF4801101E04FF080718B
:10045000064A083A5160012180F82110002180F8F5
:100460002010416B01B18847204610BD08000240B2
:100470002DE9F84FDFF8B8910024A9F1040B2346C9
:100480000F2709F1040AABF1040EC9E00125A540CC
:100490002A40AA427DD1674ED1F804C0ACEB0608D1
:1004A000B44532D014DCBCF1030F3AD009DCBCF106
:1004B000000F2AD0BCF1010F1CD0BCF1020F31D1CA
:1004C0001DE0BCF1110F17D0BCF1120F2AD119E0B9
:1004D000B8F5881F19D006DCB8F5803F15D0B8F5FF
:1004E000801F1FD111E0B8F5001F0ED0B8F5041F12
:1004F00018D10AE0CB6815E0CB681B1D12E0CB6871
:1005000008330FE0CB680C330CE08B682BB1012B68
:100510004FF0080303D0456104E0042302E00561C5
:1005200000E00023FF2A01D8064601E000F104069E
:100530004FEA840501D9A5F12005D6F8008007FA15
:1005400005FC28EA0C0803FA05F548EA0508C6F890
:1005500000804D68ED0062D5374DAE6946F001066A
:10056000AE61AD6924F0030605F001050095334D39
:1005700006EB050CDCF80850A607360F07FA06F85C
:1005800025EA0805DFF8B880404503D14FF00008A0
:1005900017E044E0DFF8AC80404502D14FF001089D
:1005A0000FE0DFF8A480404502D14FF0020808E0D8
:1005B000DFF89880404502D14FF0030801E04FF08A
:1005C000040808FA06F848EA0508CCF808804D68DF
:1005D000D9F80060ED024D4601D5164300E0964380
:1005E0002E604D68DAF80060AD02554601D516431D
:1005F00000E096432E604D68DBF80060AD035D4679
:1006000001D5164300E096432E604D68DEF8006089
:10061000ED03754601D5164300E096432E60641C39
:100620000D682A46E5407FF431AFBDE8F88F000041
:1006300008040140000011100010024000000140B9
:1006400000080140000C014000100140001401406E
:100650008068084000D00120704700000148806891
:10066000704700001000002070B5040025D094F8F9
:100670003D00002520B984F83C50204600F050F998
:10068000242084F83D002068016821F00101016008
:100690002068016841F4004101602068016821F48C
:1006A0000041016000F0E4FA4D4A6168914201D8CE
:1006B0004C4900E04C49884201D2012070BD4B49B1
:1006C0002368B0FBF1F15E6826F03F060E435E60E2
:1006D0006368934206D94FF4967359434FF47A7383
:1006E000B1FBF3F12368491C1E6A26F03F06314333
:1006F00019626168914210D84900401EB0FBF1F2C6
:10070000521CC2F30B02042A01D2042022E0B0FBE7
:10071000F1F0401CC0F30B001CE0A268F2B301EB47
:10072000C10303EB0116431EB3FBF6F35B1C43F45A
:1007300080431B0549D092B301EBC10202EB0111CA
:10074000401EB0FBF1F0401CC0F30B0040F48040B1
:1007500040F400402168CA694CF6FF739A43104385
:10076000C861D4E9071001432068026822F0C00282
:1007700011430160D4E9030101432068826848F213
:10078000FF339A4311438160D4E90501084321688E
:10079000CA6822F0FF021043C86001E00EE016E0D4
:1007A0002068016841F0010101602564202084F87F
:1007B0003D00256384F83E50002070BD01EB4106EA
:1007C000431EB3FBF6F35B1CB3E70120C2E701EB6A
:1007D0004101401EB0FBF1F0401CC0F30B00B7E735
:1007E000A086010080841E0000093D0040420F00E9
:1007F0002DE9FF4F83B09A46DDE9119793460446F1
:10080000DDF84080FFF72AFF054694F83D002028D8
:100810007FD11923012240492046009500F090FF26
:10082000002876D194F83C00012872D0012084F889
:100830003C0020680168C90703D1016841F001014B
:1008400001602068016821F400610160212084F8C2
:100850003D00402084F83E0000262664C4F8248031
:10086000A4F82A90608D20852C48E062CDE90075BF
:1008700053465A462046049900F0E2FE70B930E033
:100880002A463946204601F001F858B1206C042868
:1008900004D12068016841F400710160012007B0B3
:1008A000BDE8F08F606A216800780861606A401CCA
:1008B0006062218D491E89B22185628D521E62853A
:1008C00022685369DB435B070BD469B10078106180
:1008D000606A401C6062208D401E2085608D401E35
:1008E0006085208D0028CBD12A463946204600F06D
:1008F000FBFE0028CAD154F83D0B016841F4007199
:100900000160202004F81E09E67766770020C6E71C
:10091000FFE70220C3E70000020010000000FFFF15
:1009200010B586B0002100910191029103910068F9
:100930000F4988421AD10F4CA06940F00800A0610D
:10094000A069694600F008000490C02000901220C1
:100950000190032003900848FFF78AFDE06940F406
:100960000010E061E06900F40010049006B010BDD2
:100970000054004000100240000C01400248816811
:10098000027811448160704710000020074810B5BC
:10099000016841F010010160032000F0A1F80F2070
:1009A00000F006F800F04AF8002010BD00200240D8
:1009B00030B505461C4887B0816941F4006181610A
:1009C000806906A900F40060009001A800F030F9E9
:1009D00000F05EF91549164AB0FBF1F11548491EC1
:1009E0000260416040F2E7320021C0E903218160EA
:1009F000816100F015FB040012D10E4800F03EFBAF
:100A000004000DD1192000F03DF8102D07D200226E
:100A10002946192000F044F80748056000E0012449
:100A200007B0204630BD00000010024040420F00D9
:100A3000002C01408C030020140000200F4808B552
:100A4000816941F001018161816901F00101009139
:100A5000C16941F08051C161C069002200F080503D
:100A600000900F21901E00F01BF80548416821F00E
:100A7000E06141F00071416008BD000000100240DB
:100A800000000140002809DB00F01F020121914015
:100A90004009800000F1E020C0F80011704700001C
:100AA000F0B40E4B1B680C46C3F30223C3F10705D9
:100AB000042D00D90425191D072901D2002300E0C7
:100AC000DB1E012606FA05F1491E214099409E4091
:100AD000761E16403143F0BC01F09DBA0CED00E0EB
:100AE000064900F0070208684FF6FF03184040EA85
:100AF0000220034A10430860704700000CED00E03C
:100B00000000FA052DE9F0470F46050061D0434E7D
:100B1000306800F00700B84209D2306820F00700C2
:100B200038433060306800F00700B84251D128687F
:100B30003B4C810712D5400703D5606840F4E06064
:100B400060602878000703D5606840F460506060FA
:100B50006068A96820F0F000084360602878C0074A
:100B600028D06868012810D02168022810D0890791
:100B700000292EDA616821F0030101436160FFF76B
:100B80006DFD804641F288390DE021688903EFE769
:100B90008901EDE7FFF762FDA0EB0801494502D9A5
:100BA0000320BDE8F0876068696800F00C00B0EBD6
:100BB000810FEFD1306800F00700B8420BD93068E0
:100BC00020F0070038433060306800F00700B8427A
:100BD00001D00120E5E72878400705D56068E9687D
:100BE00020F4E060084360602878000706D560685C
:100BF000296920F4605040EAC100606000F058F8B4
:100C00006168084AC1F30311515CC8400649086095
:100C100006480068FFF7CCFE0020C2E70020024033
:100C200000100240562D00081C0000201400002077
:100C30000F2202600C4A536803F0030343605368B9
:100C400003F0F0038360536803F4E063C360526809
:100C50004FF4E06303EAD20202610448006800F046
:100C600007000860704700000010024000200240AA
:100C70000448054900684968044AC1F30221515CEF
:100C8000C84070471C00002000100240662D00087C
:100C90000448054900684968044AC1F3C221515C0F
:100CA000C84070471C00002000100240662D00085C
:100CB0000E4A51680E4801F00C03042B11D0082B8A
:100CC0000FD10C48C1F38343C903C05C0AD55168F6
:100CD000084AC1F34041921E515C054A5043B0FBA3
:100CE000F1F070470449484370470000001002408B
:100CF00000127A00462D000800093D002DE9F84F4A
:100D0000040070D02078C04DC00749D06868C0F397
:100D10008100012807D06868C0F38100022809D14A
:100D20006868C00306D52868800339D56068002844
:100D3000E7D035E06068B0F5803F0BD010B1B0F57A
:100D4000A02F11D0286820F480302860286820F473
:100D5000802002E0286840F480302860606890B10C
:100D6000FFF77CFC06460AE0286840F480202860F3
:100D7000F0E700BFFFF772FC801B642873D8286877
:100D80008003F7D50CE0FFF769FC064605E000BFDD
:100D9000FFF764FC801B6428F0D828688003F7D430
:100DA00020789A4E80074FF001094FF0000839D59E
:100DB000686810F00C0F07D06868C0F38100022843
:100DC00009D16868C00306D42868800714D5206953
:100DD000012808D110E02069B0B1C6F80090FFF7F3
:100DE0003DFC074605E00AE1FFF738FCC01B02287E
:100DF000C4D828688007F7D52868616920F0F80012
:100E000040EAC10028600DE0C6F80080FFF726FC2C
:100E1000074604E0FFF722FCC01B022823D82868FD
:100E20008007F7D4207800072CD57948A169D9B17B
:100E3000C0F80090FFF712FC074604E0FFF70EFC35
:100E4000C01B02280FD8686A8007F7D571484FF495
:100E5000FA510068B0FBF1F0009000BF0098411E0D
:100E60000091FAD20EE080E0C0F80080FFF7F6FBB8
:100E7000074604E0FFF7F2FBC01B022875D8686A3A
:100E80008007F7D42078400760D5E8690027C000C4
:100E900008D4E86940F08050E861E869012700F073
:100EA000805000905C480168C90513D401688346EE
:100EB00041F480710160FFF7D1FB824606E000BF7C
:100EC000FFF7CCFBA0EB0A0064284ED8DBF800004B
:100ED000C005F5D5E06801280AD008B1052813D06F
:100EE000286A20F001002862286A20F0040002E04D
:100EF000286A40F001002862E06841F2883B98B11E
:100F0000FFF7ACFB82460BE0286A40F00400286241
:100F1000EEE700BFFFF7A2FBA0EB0A0159455AD844
:100F2000286A8007F6D50CE0FFF798FB824605E0BB
:100F3000FFF794FBA0EB0A0159454CD8286A8007BB
:100F4000F6D41FB1E86920F08050E861E06988B309
:100F50006968C1F38101022944D00228C6F8608083
:100F600004D0FFF77BFB044638E034E0FFF776FB64
:100F7000074604E0FFF772FBC01B02282BD8286845
:100F80008001F7D4206AB0F5803F05D16868A16878
:100F900020F4003008436860D4E908010843696818
:100FA00021F4741108436860C6F86090FFF756FB9F
:100FB000044606E025E000BFFFF750FB001B0228B7
:100FC00009D828688001F7D51BE000BFFFF746FB72
:100FD000001B022802D90320BDE8F88F2868800191
:100FE000F4D40EE00128F7D06868226A00F480315A
:100FF000914204D1616A00F47010884201D001204E
:10100000EAE70020E8E7000000100240000042424A
:10101000800442421C00002000700040704770476E
:1010200010B5040003D094F83D0010B107E0012092
:1010300010BD002084F83C00204600F01EF802207D
:1010400084F83D00211D206800F09AFE012084F8FC
:10105000460084F83E0084F83F0084F8400084F89D
:10106000410084F8420084F8430084F8440084F886
:10107000450084F83D00002010BD704790F83D10F9
:10108000012901D001207047022180F83D1001683C
:10109000CA6842F00102CA6000680B49884208D061
:1010A000B0F1804F05D00949884202D008498842F2
:1010B00004D1816801F00701062903D0016841F0DD
:1010C0000101016000207047002C01400004004035
:1010D0000008004070472DE9F04104460068C668EA
:1010E00005694FF00007A90713D5B10711D5F91EFF
:1010F000016101202077206880698007204602D0A6
:10110000FFF7E8FF04E000F07EF8204600F07CF8EE
:101110002777680716D5700714D521686FF004008B
:101120000861022020772068806910F4407F204603
:1011300002D0FFF7CFFF04E000F065F8204600F092
:1011400063F82777280715D5300713D521686FF086
:1011500008000861042020772068C06980072046C5
:1011600002D0FFF7B7FF04E000F04DF8204600F092
:101170004BF82777E80616D5F00614D521686FF0EE
:1011800010000861082020772068C06910F4407FB3
:10119000204602D0FFF79EFF04E000F034F820461E
:1011A00000F032F82777E80708D0F00706D021686A
:1011B0006FF001000861204600F028F8280608D5E5
:1011C000300606D521686FF0800008612046FFF7E1
:1011D00025FF680608D5700606D521686FF0400027
:1011E0000861204600F01CF8A8060AD5B00608D50C
:1011F00021686FF0200008612046BDE8F041FFF74C
:101200000EBFBDE8F08170477047000000680349D9
:10121000884201D1FFF7B2BB70470000002C0140AB
:101220007047704770470000F8B5016804460868C9
:10123000CA684B6910F00F0F4FF0000559D003F04A
:10124000010602F49077374365D0C10705D0D10578
:1012500003D5616C41F001016164410705D5D907EF
:1012600003D0616C41F002016164810705D5D907A3
:1012700003D0616C41F004016164010707D502F0FD
:101280002001314303D0616C41F008016164616C5D
:1012900000293AD0800604D5900602D5204600F0F9
:1012A000DAFD20684069616CC0F38010090700D442
:1012B00060B3204600F0A8FD20684069400621D5B3
:1012C0002068143050E8001F21F0400140E800126F
:1012D000002AF5D1E06BA8B16D494163E06BFFF7DF
:1012E0007BF8002811D0E06B416B01B0BDE8F04005
:1012F000084783060FD593060DD52046BDE8F84074
:1013000000F0A9BD2046FFF78DFFF8BD2046FFF78E
:1013100089FF6564F8BD266B2023012E7CD1C606AB
:101320007AD5D60678D508684868009048694FF0A5
:101330000206400640D5E16B086840680004000CD6
:10134000E8D0A28D8242E5D9E085886920282DD099
:1013500020680C3050E8001F21F4807140E8001232
:10136000002AF5D12068143050E8001F21F0010157
:1013700040E80012002AF5D12068143050E8001F20
:1013800021F0400140E80012002AF5D184F84230F3
:10139000256320680C3050E8001F21F0100140E860
:1013A0000012002AF5D1E06BFEF7F3FF6663A08D13
:1013B000E18D401A81B22AE0A08DE18D401A81B200
:1013C000E08D0028A6D00029A4D022680C3252E873
:1013D000000F20F4907042E80007002FF5D120683C
:1013E000143050E8002F22F0010240E80027002FBF
:1013F000F5D184F84230256320680C3050E8002F86
:1014000022F0100240E80023002BF5D1666320464D
:10141000FFF707FFF8BDFFE705062BD5150629D511
:1014200094F841002128F5D1A068B0F5805F01D182
:101430002069B0B1206A411C2162216800784860AF
:10144000E08C401E0004000CE084E3D12068C168F9
:1014500021F08001C1602068C16841F04001C16095
:10146000D8E7206A0088C0F308004860206A801C22
:101470002062E5E74006CDD55006CBD5CA682046A8
:1014800022F04002CA6084F8413000F0BFF8C1E7A2
:10149000F91D000870B5040004D094F8410000253F
:1014A00010B106E0012070BD84F84050204600F0E5
:1014B00023F8242084F841002068C16821F40051F9
:1014C000C160204600F028FD2068016921F49041A8
:1014D00001612068416921F02A0141612068C168E9
:1014E00041F40051C1606564202084F8410084F813
:1014F00042006563002070BD30B585B000240094C3
:101500000194029403940068184988422CD1184829
:10151000816941F480418161816901F480410491D4
:10152000816941F0040181618069124D00F004007D
:1015300004904FF40070009002200190032003906B
:1015400069462846FEF794FF2815CDE90004694650
:1015500028460294FEF78CFF002211462520FFF753
:101560009FFA2520FFF78EFA05B030BD0038014004
:10157000001002400008014090F84230202B01D0BA
:101580000220704721B11AB10023036300F020BD8F
:101590000120704770B50068184988422DD1184C59
:1015A000184D607810B101281FD106E02878AA28CC
:1015B0001BD101202070607017E02078401CC0B261
:1015C00020700A2811D3002060700E4B2070092271
:1015D00001461E5C401C714080B29042F9D3687A8B
:1015E000814202D1074801F069F820782918BDE846
:1015F000704001220448FFF7BFBF70BD00380140B2
:1016000032000020D4030020440300207047FEE78E
:1016100001684A69D24352050FD46FF480624A616F
:10162000002140F8301F202242738173026942F08A
:10163000040202610173012070470020704700001E
:101640002DE9F843044600680D46DDE90897016876
:101650009846164641F4807101604B4600224FF0D7
:1016600001112046009700F06BF848B1206800682F
:10167000C00502D54FF4007020640320BDE8F88354
:10168000216805F0FE0008613B464A4615492046A0
:1016900000F09EF888B920684169806900903A4658
:1016A0004946204600F0F2F848B1206C042804D1E5
:1016B0002068016841F4007101600120DEE7F5B2A5
:1016C000B8F1010F09D02168300A08613A4649464D
:1016D000204600F0DBF80028E7D1206805610020F3
:1016E000CCE700000200010070B516460D46044626
:1016F0001EE02046FFF78CFF08B1012070BD681C7A
:1017000016D0FEF7ABFF801BA84200D885B9206831
:101710004069C04340070BD5002044F8300F20211A
:101720006173A073216941F0200121612073E4E716
:1017300020684069C0434007DBD4002070BD000032
:101740002DE9F047984617460D460446C1F3074673
:10175000DDF820902AE000BFB8F1FF3F26D0FEF769
:101760007DFFA0EB0901414502D8B8F1000F1DD162
:101770002068012E16D0806925EA00000004000CC4
:1017800012D00020B84211D1002044F8300F20219F
:101790006173A073216941F0200121612073012050
:1017A000BDE8F0874069E7E70120EBE72068012EFC
:1017B0000AD0806925EA00000004000C06D0002051
:1017C000B842C9D00020EBE74069F3E70120F7E712
:1017D0002DE9F047984616460D4604464FF000099D
:1017E0004FF0200AC1F3074723E020684069C04357
:1017F000400515D42068016841F40071016021683A
:101800006FF480604861C4F8309084F83DA084F89B
:101810003E90216C41F00401216484F83C9021E069
:10182000701C06D0FEF71AFFA0EB0800B04203D8E8
:1018300016B1012F1FD021E02068012F15D080693B
:1018400025EA00000004000C18D000BF44F8309FC7
:1018500084F80DA084F80E90216941F020012161E7
:1018600084F80C900120BDE8F087406925EA00006B
:101870000004000CEAD12068406901E0206880691A
:1018800025EA00000004000CAFD1ECE770B5164665
:101890000D4604461EE02046FFF7BAFE08B10120BF
:1018A00070BD681C16D0FEF7D9FE801BA84200D878
:1018B00085B920684069C04300060BD5002044F874
:1018C000300F20216173A073216941F02001216153
:1018D0002073E4E720684069C0430006DBD40020A1
:1018E00070BD000010B59CB01C2216496846FEF77A
:1018F000B7FC0021684600F00CFC134C11491C2277
:1019000020601C3107A8FEF7ABFC002107A800F0FF
:1019100000FC0C4960601C2238310EA8FEF7A0FCC8
:1019200000210EA800F0F5FB0649A0601C225431EE
:1019300015A8FEF795FC002115A800F0EAFBE06071
:101940001CB010BDD42C00080000002000B585B0EC
:101950000020019003901148816941F020018161CC
:10196000816901F020010491816941F004018161E4
:10197000816901F004010491816941F008018161EC
:101980008069694600F0080004901520009001204D
:1019900002900348FEF76CFD05B000BD0010024048
:1019A000000801400D4810B50B4901600C49416029
:1019B00000214FF480428160C0E9031241618161DE
:1019C000C1610162FEF750FE002803D0BDE810405F
:1019D000FEF7DDBC10BD000000540040F002002006
:1019E000A08601000C4810B50A4901604FF4E131AE
:1019F0004160002181600C22C160C0E90412816154
:101A0000C161FFF747FD002803D0BDE81040FEF795
:101A1000BEBC10BD0038014044030020FEE70000BA
:101A20002DE9F04F364E89B03079002864D04FF060
:101A3000000886F80480012132A2084600F018F957
:101A4000DFF8D0B00025E9464FF0200AA81CC7B245
:101A5000042F46D870782844C2B2082A41D28DF8A3
:101A600000A0012400205BF82230494606E000BFB8
:101A7000401C01F804C0641CC0B2E4B213F800C0FA
:101A8000BCF1000F01D00528F2D38946082C04D2FE
:101A900009F804A0641CE4B2F8E705A9104600F0B8
:101AA00063FB002005A94B4604E0401C1A55641C4A
:101AB000C0B2E4B20A5C32B1102CF6D306E018557D
:101AC000641CE4B200E05046102CF8D38DF810806E
:101AD0006A460121384600F0CBF86D1CEDB2032DAB
:101AE000B4D37078C01C082801D20BA200E00BA26E
:101AF0000E21042000F0BCF809B0BDE8F08F000012
:101B0000220000203D3D506172616D204D656E7573
:101B10003D3D0000683300083E3E000020200000EC
:101B2000FEE770B500240021204600F061F8002592
:101B3000002000F0C3F86D1CEDB2802DF8D3641CBA
:101B4000E4B2082CEFD370BD10B500204FF47A72C8
:101B50000021491C9142FCD3401C9042F8D3AE2096
:101B600000F09AF8D52000F097F8802000F094F863
:101B7000A82000F091F83F2000F08EF8D32000F06C
:101B80008BF8002000F088F8402000F085F8A120B4
:101B900000F082F8C82000F07FF8DA2000F07CF82E
:101BA000122000F079F8812000F076F8CF2000F0C4
:101BB00073F8D92000F070F8F12000F06DF8DB2008
:101BC00000F06AF8302000F067F8A42000F064F814
:101BD000A62000F061F88D2000F05EF8142000F0DF
:101BE0005BF8AF2000F058F8BDE81040FFF799BF50
:101BF00010B50C4640F0B00000F04EF8102040EA5E
:101C0000141000F049F804F00F00BDE8104000F097
:101C100043B800002DE9F0410746CE004000203ACD
:101C2000083E801ED5B24FF0FF38F1B2C0B2FFF7C8
:101C3000DFFF0E48002400EB0515285D00F03EF89C
:101C4000641CE4B2082CF8D308EB4700F1B2C0B230
:101C5000FFF7CEFF00242819007A00F02FF8641C4B
:101C6000E4B2082CF7D3BDE8F08100006E2D000827
:101C70002DE9F04115460E460746002406E03019CE
:101C8000C1B23846FFF7C6FF641CE4B22A5D002AE1
:101C9000F5D1BDE8F081000001B584B001216422D6
:101CA00004A88DE807000B46002278210248FEF7C1
:101CB0009FFD05B000BD0000F002002001B584B01A
:101CC0000121642204A88DE807000B4640227821F8
:101CD0000248FEF78DFD05B000BD0000F0020020B7
:101CE000012000F00AFAFBE710B5502080F31188BC
:101CF000BFF34F8FBFF36F8F00F024FF18B104497B
:101D00004FF080500860002080F3118810BD000063
:101D100004ED00E030B58FB028216846FEF7D2FA16
:101D200014210AA8FEF7CEFA01210804CDE900101B
:101D30000024029402250491CDE907504FF4E010ED
:101D400009906846FEF7DAFF08B172B6FEE70F2089
:101D5000CDE90A054FF48060CDE90C4002210AA8C4
:101D60000E94FEF7CFFE002801D072B6FEE70FB04A
:101D700030BD70470148FFF7AEB900008C0300206A
:101D8000F0B50268194B1A4C1A4D4FF08047984233
:101D900005D0B84203D0A04201D0A84203D122F01E
:101DA00070064A683243984205D0B84203D0A04238
:101DB00001D0A84203D122F44074CA6822434C697E
:101DC00022F08002224302608A68C2620A6882624C
:101DD000984201D109690163012141610169C90783
:101DE00003D0016921F001010161F0BD002C014027
:101DF000000400400008004010B5406A0021C18581
:101E0000C184FFF70FFA10BD01680C3151E8002FB3
:101E100022F4907241E80023002BF5D101681431BF
:101E200051E8002F22F0010241E80023002BF5D1F8
:101E3000016B012909D101680C3151E8002F22F012
:101E4000100241E80023002BF5D1202180F8421038
:101E500000210163704708B590F84210222901D093
:101E6000022008BD82684FF480539A4201D1016973
:101E700021B1816A9A421BD04AB10AE00268816AA4
:101E80005268C2F308020A80816A891C08E002696C
:101E900072B10268526802F07F020A70816A491CBE
:101EA0008162C18D491E0904090CC18503D01BE064
:101EB00002685268F1E70168CA6822F02002CA602D
:101EC0000168CA6822F48072CA6001684A6922F017
:101ED00001024A61202180F8421000214163026B17
:101EE000012A03D0FFF756FB002008BD01630168FB
:101EF0000C3151E8002F22F0100241E80023002BA2
:101F0000F5D101680A68D20602D50A6849680091CD
:101F1000818DFFF786F9E7E770B50446006801692F
:101F2000E26821F44051114301612169A06808432E
:101F3000616908432168CA6841F20C639A4302430D
:101F4000CA6020684169A26921F44071114341616E
:101F50001E492068884202D1FEF79AFE01E0FEF792
:101F600087FE00EBC00101EB001260686421800075
:101F7000B2FBF0F3B3FBF1F36FF018067343B2FB5F
:101F8000F0F5B2FBF0F605EB8305322303EB051504
:101F9000B5FBF1F5B6FBF1F605F0F00505EB06151E
:101FA000B2FBF0F6B2FBF0F0B0FBF1F06FF018020C
:101FB000504306EB800003EB0010B0FBF1F021680A
:101FC00000F00F002844886070BD00000038014018
:101FD00081628285C28500214164222180F84210FD
:101FE000016921B10168CA6842F48072CA6001685F
:101FF0004A6942F001024A610068C16841F020016B
:10200000C1600020704700000148FFF70DB90000D3
:1020100044030020FEE70907090E002804DB00F155
:10202000E02080F80014704700F00F0000F1E0207D
:1020300080F8141D70470000DFF880801E4F4FF0BD
:102040000109A8F1020401213846FEF701FB06460A
:1020500004213846FEF7FCFA05462078012810D105
:102060007EB9142000F049F801213846FEF7F0FA55
:1020700038B998F80110404619B1491E417080F8EE
:10208000049026706078012811D185B9142000F0E1
:1020900034F804213846FEF7DBFA40B998F801100D
:1020A0004046052903D2491C417080F804906570B0
:1020B0000A2000F022F8C6E70008014022000020B4
:1020C000FEF764FCFFF726FEFFF740FCFFF76AFC13
:1020D000FFF788FCFFF706FC00F016F8FEE7014664
:1020E0000020842900D0C81C7047FFF72DFDFFF7A2
:1020F00097FC322000F001F8F9E710B500B9012093
:1021000000F0E2FB002010BD10B500F003FC002041
:1021100010BD7FB50D4604464169B0F9080081B194
:10212000A16971B1FFF7DBFFD4E905128DE8070063
:10213000D4E900102B46226900F0D9FC039004B0CA
:1021400070BDFFF7CCFF03A9CDE90001208A2B4623
:1021500082B2D4E9001000F09DFC012801D00020DB
:10216000EDE70398EBE7000070B50C4600254D2223
:102170002449082844D2DFE800F0040608181D218D
:102180002A3488791EE008891CE0887A214600F00C
:1021900071FA002001E0401CC0B2215C0029FAD194
:1021A000252121542044457070BDC87A164931F864
:1021B000100007E0087B1449283902E0487B1249E7
:1021C0000C31085C2146BDE8704000F053BA887BB2
:1021D00008B1412011E043202070572008E0A5708D
:1021E00070BDC97B532029B1012906D020704F2032
:1021F0006070F4E720704420FAE720706270EEE728
:10220000257070BD22000020883300082DE9F041C0
:10221000184C0F460546E6682068001D00F08CFA51
:1022200038B9206890F82C1001208840216981433A
:102230002161681C07D137B12168BDE8F0410E4823
:10224000091D00F0BDBA20683544B54245602168DB
:1022500005D2A06BBDE8F041091D00F099BA606B92
:10226000091D00F095FAA06A854200D2A562BDE87A
:10227000F081000034000020BC0400202DE9F04172
:10228000054600F0A9FA2E4CA068401CA06020680A
:102290002C4F10B1606940B32DE02560A068012883
:1022A00029D1002606EB860007EB800000F062FAD9
:1022B000761C072EF6D323488C3000F05BFA2148B9
:1022C000A03000F057FA1F48B43000F053FA1D4810
:1022D000C83000F04FFA1B48DC3000F04BFA1948C8
:1022E0008C3060631430A06305E02068E96AC06A3E
:1022F000884200D82560606A401C6062E96A01205B
:10230000226988401043206101EB810007EB8000C7
:10231000291D00F055FA00F07FFA606900280CD002
:102320002068E96AC06A884207D207494FF08050A6
:102330000860BFF34F8FBFF36F8FBDE8F0810000DF
:1023400034000020E003002004ED00E010B5044656
:1023500090F8510058B101280CD002280FD050201D
:1023600080F31188BFF34F8FBFF36F8FFEE7206BB1
:1023700000F066FA2046BDE8104000F061BA10BDDA
:1023800010484FF40051420706D0C01D0D4920F0FF
:102390000700411AC1F500510B4A00230144C2E96C
:1023A00000030839183A21F0070111604B600B60F7
:1023B0000B1AC0E9001393604FF000405360506166
:1023C00070470000D004002088000020144E154CF7
:1023D000A6F1C8074FF08058DFF84C9012E000BF1C
:1023E00000F0FAF9F068C568281D00F0A5F9A068AA
:1023F000401EA0606068401E606000F00DFA284634
:10240000FFF7A4FF60680028EAD138680128F9D9ED
:10241000C9F80080BFF34F8FBFF36F8FF2E7000062
:10242000A80400203400002004ED00E02DE9F0476E
:102430009A46DDE9098481466FF00303206B03EBC4
:1024400082021044089E20F00707780707D050202A
:1024500080F31188BFF34F8FBFF36F8FFEE7002526
:1024600061B1002023180A5C83F834200A5C12B1A1
:10247000401C1028F6D384F8435001E084F834500F
:10248000072E00D30626E662C4E91165201D00F080
:102490007CF904F1180000F078F92461C6F1070016
:1024A0006462A061E56484F850505246494638465B
:1024B00000F0C0F82060B8F1000F01D0C8F800406B
:1024C000BDE8F08730B5114900E011460A68824244
:1024D000FBD34B685C18844203D1406818444860C1
:1024E000084643681C18944209D1084C183C2468DB
:1024F000A24209D052681A4442600A681268026017
:10250000814200D0086030BD0460F9E788000020F7
:102510000648416B096829B1416BC968C9684968B7
:10252000816270474FF0FF31FAE70000340000206D
:1025300008484068401C4FF0500080F3118804D0D8
:10254000BFF34F8FBFF36F8FFEE7BFF34F8FBFF324
:102550006F8FFEE7900000202DE9F041054600272F
:1025600000F00EFA324E306808B9FFF709FF7069C3
:1025700005424ED1C5B3083568070ED005F00700F7
:10258000C0F108000544680707D0502080F3118887
:10259000BFF34F8FBFF36F8FFEE72DB37068854297
:1025A00037D82348183001460C6801E020460C4615
:1025B0006168A94202D221680029F7D131688C42B2
:1025C00027D007682168016060680837411B10291F
:1025D0000FD96019420708D0502080F31188BFF34B
:1025E0004F8FBFF36F8FFEE713E041606560FFF729
:1025F00069FF61687068401A7060B268904200D2EA
:10260000B060706901430020C4E90001F068401C1B
:10261000F06000F0FDFA780707D0502080F31188B1
:10262000BFF34F8FBFF36F8FFEE73846BDE8F081F1
:102630007000002010B5031F4FF080741C601B1F3A
:1026400021F001011960191F024B0B601439403849
:102650000A6010BD31250008012204490448FEF734
:102660008BFF6420FFF749FDFBE70000D403002047
:1026700044030020FEB500221346164680B10A2509
:102680004FEA0D04B0FBF5F705FB1707B0FBF5F0BB
:102690003037A754521CD2B260B10B2AF2D309E0F2
:1026A000302008704E70FEBD521ED2B2A05CC854DD
:1026B0005B1CDBB2002AF7D1CE54FEBDF0B54178E9
:1026C000437901F00F02817803F0030701F0010C58
:1026D000C178837901F0070503F007040179C37914
:1026E000007A1E3200F00706114801F00F0103F0D6
:1026F0000F03827180F80EC0062D02D80D4A525D7C
:1027000000E0322282726422491C51430181C77366
:10271000052C00D90024C4720A2B00D9002343736E
:10272000062E00D9002606730121C1700171F0BD8B
:10273000220000209F330008D0E9013201699A602D
:10274000D0E901235A604A68824201D182684A6016
:10275000002202610868401E086008687047000097
:10276000034B036003F15400086080201060704741
:102770009C00002000F108014FF0FF32C0E9011277
:10278000C160016100210160704700210161704753
:1027900030B50B685A1C02D000F1080202E0026951
:1027A00004E02246546825689D42FAD953684B607C
:1027B00099608A60516008610168491C016030BD00
:1027C00042684A6093688B609368596091600861C1
:1027D0000168491C01607047502080F31188BFF3E5
:1027E0004F8FBFF36F8F0A494868401C486001282B
:1027F0000CD10848006810F0FF0F07D0502080F37C
:102800001188BFF34F8FBFF36F8FFEE77047000053
:102810009000002004ED00E00849486828B1401EFF
:10282000486001D180F311887047502080F31188EF
:10283000BFF34F8FBFF36F8FFEE7000090000020C3
:1028400070B500282AD0164DA0F1080460686969A7
:10285000084207D1502080F31188BFF34F8FBFF398
:102860006F8FFEE722683AB1502080F31188BFF3E2
:102870004F8FBFF36F8FFEE78843606000F080F8F2
:1028800060686968084468602046FFF71BFE286995
:10289000401C2861BDE8704000F0BAB970BD00006E
:1028A000700000204FF0E0200021016181610549A6
:1028B0004FF47A720968B1FBF2F1491E41610721B8
:1028C000016170471C00002010B5020014D00F48B1
:1028D000006B38B1502080F31188BFF34F8FBFF3E6
:1028E0006F8FFEE700F04CF800211046FFF78EFCDA
:1028F00000F08EF9002807D105494FF0805008609C
:10290000BFF34F8FBFF36F8F10BD00003400002066
:1029100004ED00E010B586B00024039405AA04A9D4
:1029200003A80494FFF71CFFDDE903010094CDE93F
:10293000011000230EA11048059A00F0D8F80F49A5
:102940000028C86211D0502080F31188BFF34F8F48
:10295000BFF36F8F4FF0FF30886201204861CC6079
:1029600006B0BDE8104000F041B806B010BD000050
:1029700049444C4500000000CD23000834000020ED
:102980000248016B491C01637047000034000020BD
:102990001448016B11B10121C16170470021C1616F
:1029A0000169B1FA81F1C1F11F0101EB81020E4908
:1029B00051F822306BB101EB820101F108034A6842
:1029C00052684A609A4201D152684A60D1680160F7
:1029D0007047502080F31188BFF34F8FBFF36F8F84
:1029E000FEE7000034000020E00300201CB526496B
:1029F00008780190FF20087008788DF800009DF895
:102A000000009DF8002000F0F000904207D0502018
:102A100080F31188BFF34F8FBFF36F8FFEE79DF8F0
:102A200000001A4C00F0500020700720A06005E064
:102A30009DF8002052008DF80020401E9DF80020D7
:102A40001206F5D4A060032807D0502080F3118827
:102A5000BFF34F8FBFF36F8FFEE74FF44070A0605E
:102A6000019808700A48016841F47001016001682A
:102A700041F070410160FFF715FF00206060FDF735
:102A800095FB00201CBD000000E400E09000002049
:102A900020ED00E02DE9FF5F8346DDE90E879946D2
:102AA00016468A469000FFF757FD05001CD05420BB
:102AB000FFF752FD040014D00020256384F8510074
:102AC000CDE90240CDE900874B4632465146584693
:102AD000FFF7ACFC2046FFF7D1FB012004B0BDE8B6
:102AE000F09F2846FFF7ACFE4FF0FF30F6E7F0B559
:102AF00085B0DDE90B640A9DA6B1DCB154270097CF
:102B00002663022684F85160002604AFCDE9024610
:102B1000CDE90057FFF78AFC2046FFF7AFFB04988A
:102B200005B0F0BD502080F31188BFF34F8FBFF385
:102B30006F8FFEE7502080F31188BFF34F8FBFF3F4
:102B40006F8FFEE72DE9F0412F4C0026206B28B156
:102B5000A069401CA0613046BDE8F081E5686D1CAD
:102B6000E56013D1606B006838B1502080F31188A4
:102B7000BFF34F8FBFF36F8FFEE7606BA16B616395
:102B8000A063206A401C2062FFF7C2FCA06ADFF845
:102B90007C80854209D3606B0068A0B1606BC0681F
:102BA000C7687868854211D2A0622068C06A00EBCD
:102BB000800158F82100012800D90126E069002889
:102BC000C9D00126C7E74FF0FF30EDE7381DFFF70A
:102BD000B3FDB86A18B107F11800FFF7ADFDF96A47
:102BE0000120226988401043206101EB810108EB3C
:102BF0008100391DFFF7E4FDF86A2168C96A88423F
:102C0000C9D30126C7E7000034000020E0030020FC
:102C10002DE9F0472C4D00242746286B38B1FFF7EB
:102C2000DBFD286B401E2863286B40B146E0502036
:102C300080F31188BFF34F8FBFF36F8FFEE7A96852
:102C4000224E0120D1B3A6F1B40980463068E8B124
:102C5000F068C46804F11800FFF76EFD201DFFF74F
:102C60006BFDE06A2A6908FA00F11143296100EB63
:102C7000800109EB8100211DFFF7A2FDE06A2968B0
:102C8000C96A8842E2D3C5F81C80DFE70CB1FFF7C0
:102C90003FFCAC6944B14646FFF754FF00B1EE611A
:102CA000641EF9D10020A861E86938B108490127FC
:102CB00038070860BFF34F8FBFF36F8FFFF7ACFD8E
:102CC0003846BDE8F087000034000020940400205E
:102CD00004ED00E0A8330008E11C0008000000003B
:102CE0000000000080000000000000000000000064
:102CF000B4330008EB2000080000000000000000D2
:102D0000000100000000000000000000CC330008BB
:102D100039200008010000000000000080000000D1
:102D20000000000000000000C03300085926000821
:102D3000FFFF000000000000000100000000000094
:102D400000000000010202030405060708090A0B3F
:102D50000C0D0E0F1010000000000000000001021A
:102D60000304060708090000000001020304000034
:102D70000000000000000000000000000000000053
:102D800000F80000000000000033300000000010D8
:102D90000C06100C0600000000000000000040C0FF
:102DA0007840C0784000043F04043F0404000070F1
:102DB00088FC08300000001820FF211E0000F008E9
:102DC000F000E018000000211C031E211E0000F08E
:102DD0000888700000001E212324192721101016D6
:102DE0000E000000000000000000000000000000D5
:102DF00000E0180402000000000718204000000254
:102E00000418E000000000402018070000004040C7
:102E100080F0804040000202010F01020200000029
:102E200000F0000000000101011F0101010000008D
:102E300000000000000080B07000000000000000F2
:102E4000000000000000000101010101010100007B
:102E50000000000000000030300000000000000012
:102E6000000080601804006018060100000000E007
:102E700010080810E000000F102020100F000010B4
:102E800010F8000000000020203F2020000000700B
:102E90000808088870000030282422213000003003
:102EA0000888884830000018202020110E000000FB
:102EB000C02010F8000000070424243F240000F87C
:102EC0000888880808000019212020110E0000E061
:102ED000108888180000000F112020110E00003803
:102EE0000808C83808000000003F0000000000701B
:102EF000880808887000001C222121221C0000E0A4
:102F000010080810E0000000312222110F0000001C
:102F100000C0C000000000000030300000000000D1
:102F20000080000000000000806000000000000041
:102F300080402010080000010204081020004040DA
:102F4000404040404000040404040404040000081D
:102F500010204080000000201008040201000070D2
:102F600048080808F0000000003036010000C030BA
:102F7000C828E810E0000718272423140B000000DD
:102F8000C038E0000000203C23020227382008F867
:102F9000888888700000203F202020110E00C0305B
:102FA000080808083800071820202010080008F832
:102FB00008080810E000203F202020100F0008F82B
:102FC0008888E8081000203F20202320180008F8F7
:102FD0008888E8081000203F200003000000C0306F
:102FE00008080838000007182020221E020008F8F0
:102FF00008000008F808203F210101213F200008B7
:1030000008F8080800000020203F202000000000F1
:103010000808F8080800C08080807F00000008F8D9
:1030200088C028180800203F20012638200008F812
:10303000080000000000203F20202020300008F879
:10304000F800F8F80800203F003F003F200008F893
:1030500030C00008F808203F200007183F00E010AB
:1030600008080810E0000F10202020100F0008F8BA
:1030700008080808F000203F210101010000E010CD
:1030800008080810E0000F18242438100F0008F872
:1030900088888808F000203F2000030C3020007052
:1030A0008808080838000038202121221C00180850
:1030B00008F8080818000000203F2000000008F869
:1030C00008000008F808001F202020201F000878B2
:1030D000880000C83808000007380E010000F80812
:1030E00000F80008F800033C0700073C030008183C
:1030F00068808068180820302C03032C30200838A2
:10310000C800C83808000000203F20000000100858
:103110000808C838080020382621202018000000A0
:1031200000FE020202000000007F40404000000C50
:1031300030C000000000000000010638C00000029E
:103140000202FE000000004040407F00000000003E
:103150000402020204000000000000000000000061
:10316000000000000000808080808080808000025D
:103170000204000000000000000000000000000049
:103180008080808000000019242222223F2008F83D
:10319000008080000000003F112020110E00000080
:1031A000008080800000000E112020110E00000021
:1031B00000808088F800000E112020103F200000C1
:1031C000808080800000001F222222221C000080BC
:1031D00080F0888888180020203F20200000000010
:1031E000808080808000006B94949493600008F845
:1031F000008080800000203F210000203F200080D0
:103200009898000000000020203F202000000000CF
:1032100000809898000000C08080807F000008F83F
:10322000000080808000203F24022D302000000814
:1032300008F8000000000020203F202000008080CF
:10324000808080808000203F20003F20003F8080E1
:10325000008080800000203F210000203F200000EF
:10326000808080800000000F102020100F008080E0
:1032700000808000000080FFA12020110E000000CF
:10328000008080808000000E112020A0FF808080C0
:1032900080008080800020203F212000010000006D
:1032A000808080808000001C222222221100008069
:1032B00080F0808000000000203F202000008080FF
:1032C000000080808000001F202020103F20808090
:1032D000800000808080000106380C0300008080A0
:1032E0000080008080800F300C030C300F000080C5
:1032F0008000808080000020312E2E3120008080D0
:10330000800000808080808186781806010000801F
:103310008080808080000021302C2221300000003D
:103320000000807C020200000000003F40400000DE
:103330000000FF00000000000000FF00000000028D
:10334000027C800000000040403F000000000006BA
:10335000010102020404000000000000000000005F
:10336000001E3C5A7896B40004340008F433000878
:10337000D83300080C340008E4330008FC3300089C
:10338000DC330008EC330008320050006E008C0083
:10339000AA00C80000020406080A0C0E1012141E2F
:1033A00028323C46505A000064656661756C74545E
:1033B00061736B006F6C65645F7461736B00000018
:1033C000756172745F7461736B0000006B65795F87
:1033D0007461736B000000004D6F64005479706578
:1033E00000000000506861736500000046696E616E
:1033F0006C000000416D706C000000004174746E40
:1034000000000000467265710000000044656C61B8
:103410007900000034340008000000209C00000007
:1034200028010008D03400089C000020942A0000E5
:10343000440100080000000000000000000000003F
:10344000000000000100000010000000000000006B
:1034500000127A0001010000000001002300F401C5
:10346000320000000000000000000000000000002A
:10347000000000000000000000000000000000004C
:10348000000000000000000000000000000000003C
:10349000000000000000000000000000000000002C
:1034A000000000000000000000000000000000001C
:1034B000000000000000000000000000000000000C
:1034C0000000000000000000AAAAAAAA0000000054
:04000005080000ED02
:00000001FF
